{
  "transactions": [
    {
      "hash": "0x0f118eecd667bcc99c59740f2e375a49a6fcbd854b0fc28748b2d4ddbafd3c1b",
      "transactionType": "CALL",
      "contractName": null,
      "contractAddress": "0x155d5EF456C97C9193b9d4A2f835fDDE1A22e853",
      "function": "safeMint(address)",
      "arguments": [
        "0x6CA6d1e2D5347Bfab1d91e883F1915560e09129D"
      ],
      "transaction": {
        "type": "0x02",
        "from": "0x79f21d75dd65a42e6083d5117174b1704b804bd8",
        "to": "0x155d5ef456c97c9193b9d4a2f835fdde1a22e853",
        "gas": "0x41ce6",
        "value": "0x0",
        "data": "0x40d097c30000000000000000000000006ca6d1e2d5347bfab1d91e883f1915560e09129d",
        "nonce": "0x5",
        "accessList": []
      },
      "additionalContracts": [],
      "isFixedGasLimit": false
    }
  ],
  "receipts": [
    {
      "transactionHash": "0x0f118eecd667bcc99c59740f2e375a49a6fcbd854b0fc28748b2d4ddbafd3c1b",
      "transactionIndex": "0x0",
      "blockHash": "0x48db8036eeb732523cb668a3d805085df042ad213653b7555a2ad1fb1f55695b",
      "blockNumber": "0x2b634a8",
      "from": "0x79f21D75Dd65a42E6083d5117174b1704B804BD8",
      "to": "0x155d5EF456C97C9193b9d4A2f835fDDE1A22e853",
      "cumulativeGasUsed": "0x2fa48",
      "gasUsed": "0x2fa48",
      "contractAddress": null,
      "logs": [
        {
          "address": "0x155d5EF456C97C9193b9d4A2f835fDDE1A22e853",
          "topics": [
            "0xddf252ad1be2c89b69c2b068fc378daa952ba7f163c4a11628f55a4df523b3ef",
            "0x0000000000000000000000000000000000000000000000000000000000000000",
            "0x0000000000000000000000006ca6d1e2d5347bfab1d91e883f1915560e09129d",
            "0x0000000000000000000000000000000000000000000000000000000000000000"
          ],
          "data": "0x",
          "blockHash": "0x48db8036eeb732523cb668a3d805085df042ad213653b7555a2ad1fb1f55695b",
          "blockNumber": "0x2b634a8",
          "transactionHash": "0x0f118eecd667bcc99c59740f2e375a49a6fcbd854b0fc28748b2d4ddbafd3c1b",
          "transactionIndex": "0x0",
          "logIndex": "0x0",
          "removed": false
        },
        {
          "address": "0x155d5EF456C97C9193b9d4A2f835fDDE1A22e853",
          "topics": [
            "0xf8e1a15aba9398e019f0b49df1a4fde98ee17ae345cb5f6b5e2c27f5033e8ce7"
          ],
          "data": "0x0000000000000000000000000000000000000000000000000000000000000000",
          "blockHash": "0x48db8036eeb732523cb668a3d805085df042ad213653b7555a2ad1fb1f55695b",
          "blockNumber": "0x2b634a8",
          "transactionHash": "0x0f118eecd667bcc99c59740f2e375a49a6fcbd854b0fc28748b2d4ddbafd3c1b",
          "transactionIndex": "0x0",
          "logIndex": "0x1",
          "removed": false
        },
        {
          "address": "0x0000000000000000000000000000000000001010",
          "topics": [
            "0x4dfe1bbbcf077ddc3e01291eea2d5c70c2b422b415d95645b9adcfd678cb1d63",
            "0x0000000000000000000000000000000000000000000000000000000000001010",
            "0x00000000000000000000000079f21d75dd65a42e6083d5117174b1704b804bd8",
            "0x000000000000000000000000c275dc8be39f50d12f66b6a63629c39da5bae5bd"
          ],
          "data": "0x0000000000000000000000000000000000000000000000000014cc7918006000000000000000000000000000000000000000000000000000033124ce655bc3db00000000000000000000000000000000000000000000141d28908486f785d2d5000000000000000000000000000000000000000000000000031c58554d5b63db00000000000000000000000000000000000000000000141d28a551000f8632d5",
          "blockHash": "0x48db8036eeb732523cb668a3d805085df042ad213653b7555a2ad1fb1f55695b",
          "blockNumber": "0x2b634a8",
          "transactionHash": "0x0f118eecd667bcc99c59740f2e375a49a6fcbd854b0fc28748b2d4ddbafd3c1b",
          "transactionIndex": "0x0",
          "logIndex": "0x2",
          "removed": false
        }
      ],
      "status": "0x1",
      "logsBloom": "0x0000000000000000000000000000000000000000000000000000000000000000000000008000000000000000000000000000800000200000000000000000000000000000000000000000004800000080000000000000200004010010000000000000000002000000000000000000080000000000000000008000001000000000000000000000000002000000000000000001000000000000000000000000000020000000000000000000000000000000200000000000000000004000000000c000000002000000020001000008000000000040000000000000100000000020000000000000000000200000000000000000000000000000000000000000100000",
      "type": "0x2",
      "effectiveGasPrice": "0x6fc23ac10"
    }
  ],
  "libraries": [],
  "pending": [],
  "returns": {
    "0": {
      "internal_type": "contract PolyNFT",
      "value": "0x0000000000000000000000000000000000000000"
    }
  },
  "timestamp": 1706962663,
  "chain": 80001,
  "multi": false,
  "commit": "c95f13d"
}