{
  "transactions": [
    {
      "hash": "0x51433fb623e56308ee0e6c84192b24fffe672ae6ef4e9aeac75e2fa3b35eaad8",
      "transactionType": "CALL",
      "contractName": null,
      "contractAddress": "0x155d5EF456C97C9193b9d4A2f835fDDE1A22e853",
      "function": "safeMint(address)",
      "arguments": [
        "0x79f21D75Dd65a42E6083d5117174b1704B804BD8"
      ],
      "transaction": {
        "type": "0x02",
        "from": "0x79f21d75dd65a42e6083d5117174b1704b804bd8",
        "to": "0x155d5ef456c97c9193b9d4a2f835fdde1a22e853",
        "gas": "0x3b325",
        "value": "0x0",
        "data": "0x40d097c300000000000000000000000079f21d75dd65a42e6083d5117174b1704b804bd8",
        "nonce": "0x6",
        "accessList": []
      },
      "additionalContracts": [],
      "isFixedGasLimit": false
    }
  ],
  "receipts": [],
  "libraries": [],
  "pending": [
    "0x51433fb623e56308ee0e6c84192b24fffe672ae6ef4e9aeac75e2fa3b35eaad8"
  ],
  "returns": {
    "0": {
      "internal_type": "contract PolyNFT",
      "value": "0x0000000000000000000000000000000000000000"
    }
  },
  "timestamp": 1706962794,
  "chain": 80001,
  "multi": false,
  "commit": "c95f13d"
}