{
  "transactions": [
    {
      "hash": "0x51433fb623e56308ee0e6c84192b24fffe672ae6ef4e9aeac75e2fa3b35eaad8",
      "transactionType": "CALL",
      "contractName": null,
      "contractAddress": "0x155d5EF456C97C9193b9d4A2f835fDDE1A22e853",
      "function": "safeMint(address)",
      "arguments": [
        "0x79f21D75Dd65a42E6083d5117174b1704B804BD8"
      ],
      "transaction": {
        "type": "0x02",
        "from": "0x79f21d75dd65a42e6083d5117174b1704b804bd8",
        "to": "0x155d5ef456c97c9193b9d4a2f835fdde1a22e853",
        "gas": "0x3b325",
        "value": "0x0",
        "data": "0x40d097c300000000000000000000000079f21d75dd65a42e6083d5117174b1704b804bd8",
        "nonce": "0x6",
        "accessList": []
      },
      "additionalContracts": [],
      "isFixedGasLimit": false
    }
  ],
  "receipts": [
    {
      "transactionHash": "0x51433fb623e56308ee0e6c84192b24fffe672ae6ef4e9aeac75e2fa3b35eaad8",
      "transactionIndex": "0x0",
      "blockHash": "0x424ffcd84ddac53a22d7c9712aa8ae91c8b692162140025d46888706f892e07f",
      "blockNumber": "0x2b634e9",
      "from": "0x79f21D75Dd65a42E6083d5117174b1704B804BD8",
      "to": "0x155d5EF456C97C9193b9d4A2f835fDDE1A22e853",
      "cumulativeGasUsed": "0x2adb8",
      "gasUsed": "0x2adb8",
      "contractAddress": null,
      "logs": [
        {
          "address": "0x155d5EF456C97C9193b9d4A2f835fDDE1A22e853",
          "topics": [
            "0xddf252ad1be2c89b69c2b068fc378daa952ba7f163c4a11628f55a4df523b3ef",
            "0x0000000000000000000000000000000000000000000000000000000000000000",
            "0x00000000000000000000000079f21d75dd65a42e6083d5117174b1704b804bd8",
            "0x0000000000000000000000000000000000000000000000000000000000000001"
          ],
          "data": "0x",
          "blockHash": "0x424ffcd84ddac53a22d7c9712aa8ae91c8b692162140025d46888706f892e07f",
          "blockNumber": "0x2b634e9",
          "transactionHash": "0x51433fb623e56308ee0e6c84192b24fffe672ae6ef4e9aeac75e2fa3b35eaad8",
          "transactionIndex": "0x0",
          "logIndex": "0x0",
          "removed": false
        },
        {
          "address": "0x155d5EF456C97C9193b9d4A2f835fDDE1A22e853",
          "topics": [
            "0xf8e1a15aba9398e019f0b49df1a4fde98ee17ae345cb5f6b5e2c27f5033e8ce7"
          ],
          "data": "0x0000000000000000000000000000000000000000000000000000000000000001",
          "blockHash": "0x424ffcd84ddac53a22d7c9712aa8ae91c8b692162140025d46888706f892e07f",
          "blockNumber": "0x2b634e9",
          "transactionHash": "0x51433fb623e56308ee0e6c84192b24fffe672ae6ef4e9aeac75e2fa3b35eaad8",
          "transactionIndex": "0x0",
          "logIndex": "0x1",
          "removed": false
        },
        {
          "address": "0x0000000000000000000000000000000000001010",
          "topics": [
            "0x4dfe1bbbcf077ddc3e01291eea2d5c70c2b422b415d95645b9adcfd678cb1d63",
            "0x0000000000000000000000000000000000000000000000000000000000001010",
            "0x00000000000000000000000079f21d75dd65a42e6083d5117174b1704b804bd8",
            "0x0000000000000000000000005082f249cdb2f2c1ee035e4f423c46ea2dab3ab1"
          ],
          "data": "0x0000000000000000000000000000000000000000000000000012b5b0acdfa000000000000000000000000000000000000000000000000000031c58554d2bbf5b0000000000000000000000000000000000000000000005f131d77683c8a89f780000000000000000000000000000000000000000000000000309a2a4a04c1f5b0000000000000000000000000000000000000000000005f131ea2c3475883f78",
          "blockHash": "0x424ffcd84ddac53a22d7c9712aa8ae91c8b692162140025d46888706f892e07f",
          "blockNumber": "0x2b634e9",
          "transactionHash": "0x51433fb623e56308ee0e6c84192b24fffe672ae6ef4e9aeac75e2fa3b35eaad8",
          "transactionIndex": "0x0",
          "logIndex": "0x2",
          "removed": false
        }
      ],
      "status": "0x1",
      "logsBloom": "0x0000000000000000000000000000000000000000000000000000000002000000000000000200000000000000000000000000800000000000000000000004000000000000000000000000004800000080000000000004200000010010000000000000000002000000000000000000080000000000000000008000001000000000000000000000000000000000000000000000000000000000000000000000000020000000000000000000000000000000200000000000000000000000000000c000000002000000020001000008000000000040000000000000100000000060000000000000000080200000000000000000000000000000000000000000100000",
      "type": "0x2",
      "effectiveGasPrice": "0x6fc23ac10"
    }
  ],
  "libraries": [],
  "pending": [],
  "returns": {
    "0": {
      "internal_type": "contract PolyNFT",
      "value": "0x0000000000000000000000000000000000000000"
    }
  },
  "timestamp": 1706962801,
  "chain": 80001,
  "multi": false,
  "commit": "c95f13d"
}